:020000040800F2
:1000000078400020CD020008672E0008212D00084E
:10001000652E0008A71D0008053E0008000000002E
:100020000000000000000000000000003502000891
:10003000A91D000800000000790200087F3A0008AE
:10004000E7020008E7020008E7020008E7020008EC
:10005000E7020008E7020008E7020008E7020008DC
:10006000E7020008E7020008E7020008E7020008CC
:10007000E7020008E7020008E7020008E7020008BC
:10008000E7020008E7020008E7020008E7020008AC
:10009000E7020008E7020008E7020008E70200089C
:1000A000E7020008E7020008E7020008E70200088C
:1000B000E7020008E7020008F93A0008E702000832
:1000C000E7020008E7020008E7020008E70200086C
:1000D000E7020008F93D0008E7020008E70200080F
:1000E000E7020008E7020008E702000800F002F853
:1000F00000F090F80AA090E8000C82448344AAF132
:100100000107DA4501D100F085F8AFF2090EBAE82F
:100110000F0013F0010F18BFFB1A43F0010318473B
:100120005C6000007C600000103A24BF78C878C191
:10013000FAD8520724BF30C830C144BF04680C60ED
:10014000704700000023002400250026103A28BF35
:1001500078C1FBD8520728BF30C148BF0B60704739
:100160006E2900F07F82702900F0C183662905F0B6
:10017000C582652905F0C282672905F0BF82612921
:1001800005F0BE8203681B0A28BF41F0800169297F
:1001900000F02C82642900F02982752900F0268263
:1001A0006F2900F04E83782900F08D83E92900F053
:1001B000E982E42900F0E682F52900F0E382EF29E4
:1001C00000F04B83F82900F08C830368DB0928BF1B
:1001D00041F08001632901F0E380732901F0E88098
:1001E000E32901F0F380F32901F0F8800020704743
:1001F0001FB501F049F904000020002105F068FA5C
:10020000401C60600020002105F04CFAE0601FBD3A
:1002100010B510BD01F00AF91146FFF7E9FF03F030
:100220001DFE01F0E7F903B4FFF7F2FF03BC01F094
:10023000EBF90000224B19680868B0E8F00F80F372
:100240000988BFF36F8F4FF0000080F311884EF0E4
:100250000D0E70470000000006480068006880F33B
:10026000088862B661B6BFF34F8FBFF36F8F00DFB0
:1002700000BF00BF08ED00E0EFF30980BFF36F8F10
:100280000F4B1A6820E9F00F106008B54FF05000CE
:1002900080F31188BFF34F8FBFF36F8F04F0EAFC38
:1002A0004FF0000080F31188BDE808401968086825
:1002B000B0E8F00F80F30988BFF36F8F704700BF7D
:1002C00030000020EFF305807047000009488047A8
:1002D00009480047FEE7FEE7FEE7FEE7FEE7FEE728
:1002E000FEE7FEE7FEE7FEE704480549054A064B40
:1002F00070470000F53A0008ED000008783A002049
:1003000078400020783C0020783C00201CB50C464A
:10031000064B7B4469460090204600F0BCF9044639
:100320000020694600F0CAF920461CBDA703000062
:1003300040EA0103024630B59B0710D14FF001346B
:1003400000E008C208C91D1B9D4315EAC41FF8D070
:1003500013F0FF0102F8011B0DD01B0AF8E711F89A
:10036000013B002B02F8013B05D011F8013B002BAB
:1003700002F8013BF3D130BD10B5431C02E010F888
:10038000011B71B18107FAD14FF0013202C88C1AFA
:100390008C4314EAC211F9D0C01A0A0603D0C01E59
:1003A00010BDC01A10BD0A0401D0801E10BD090284
:1003B000FCD0401E10BD032A40F2308010F0030C28
:1003C00000F0158011F8013BBCF1020F624498BFA8
:1003D00011F801CB00F8013B38BF11F8013BA2F145
:1003E000040298BF00F801CB38BF00F8013B11F0C0
:1003F000030300F04B83083AC0F0088051F8043B37
:10040000083A51F804CBA0E80810F5E7121D5CBFCC
:1004100051F8043B40F8043BAFF30080D20724BFFF
:1004200011F8013B11F801CB48BF11F8012B24BF93
:1004300000F8013B00F801CB48BF00F8012B7047E2
:1004400002F0FF0343EA032242EA024200F052BBF9
:100450004FF0000200B5134694469646203922BF5D
:10046000A0E80C50A0E80C50B1F12001BFF4F7AFA8
:10047000090728BFA0E80C5048BF0CC05DF804EB8A
:10048000890028BF40F8042B08BF704748BF20F8F8
:10049000022B11F0804F18BF00F8012B70470000AD
:1004A0004FF0013C50F8042B51F8043B9A4221D103
:1004B000A2EB0C03934313EACC1317D150F8042B8F
:1004C00051F8043B9A4215D1A2EB0C03934313EA73
:1004D000CC130BD150F8042B51F8043B9A4209D1AC
:1004E000A2EB0C03934313EACC13DBD04FF00000D4
:1004F000704700BFD01A01BAB1FA81F101F01801BA
:1005000022FA01F0CB40C1F12001DBB2C0B2C01A27
:100510002CFA01F3D11A914311EAC311E6D17047C5
:1005200070477047704770B5044685690068C1061A
:1005300001D5302600E02026C00707D070BDD4E9E1
:10054000012130469047206A401C20626D1EF6D57E
:1005500070BD70B5044685690078C00707D170BDCD
:10056000D4E9012120209047206A401C20626D1EA2
:10057000F6D570BD09684A0501D540B27047C90576
:10058000FCD500B2704709684A0501D5C0B2704772
:10059000C905FCD580B2704770B50C460546012AE6
:1005A00005D02878800600D5EA69002302E00123FF
:1005B00005E05B1C934202D2E05C0028F9D1A869F7
:1005C000E618C01AA861286A184428622846FFF76E
:1005D000AAFF04E0D5E9012114F8010B9047B442C9
:1005E000F8D32846FFF7B5FF70BD00002DE9F041B4
:1005F0000646002410687529314616A510D0FFF76D
:10060000B9FF002802DA404213A507E031688A07E3
:1006100001D512A502E0490704D511A5012401E086
:10062000FFF7B1FF00210A2206F1240709E0B0FB21
:10063000F2FCB0FBF2F302FB1C0030307854184699
:10064000491C0028F3D123462A463046BDE8F04134
:1006500000F0B5BA000000002D0000002B000000E3
:100660002000000011680268006A530501D5087077
:100670000AE0D30501D5088006E0130603D5C217AA
:10068000C1E9000200E008600120704701694A1CCE
:1006900002610878704700B58FB0CDE901310021C3
:1006A000059105497944CDE903101146684600F0EB
:1006B00029F90FB000BD0000E5FFFFFF0A6802F84E
:1006C000010B0A60704700002DE9FF5F15468A465E
:1006D0000446DFF8AC80F8440027D8E900103E4615
:1006E000CDE9001010E03AF816106A4602A800F0B2
:1006F00079FE411C07D02178890603D5E2693918B3
:1007000091420DD80744761C2078800602D5E06916
:10071000B84205DDAE42E6DB3AF816000028E2D129
:10072000A069C01BA0612046FFF7FDFED8E90010BC
:10073000CDE90010002017E03AF818106A4602A828
:1007400000F050FEB0F1FF3F81460BD000250DF1C7
:10075000080B05E0D4E901211BF8050090476D1C4A
:100760004D45F7D308F10100B0428046E4DB206A32
:10077000384420622046FFF7ECFEBDE8FF9F0000F2
:100780009A5900002DE9F0418046D21D22F007025F
:100790000025D2E90002F52915A614D0011E72F138
:1007A000000106DA0023D0EB030063EB020211A67E
:1007B00008E0D8F800108B0701D50FA602E0490722
:1007C00001D50EA601251146002408F1240704E0F6
:1007D00000F0B0F930323A55641C50EA0102F7D10A
:1007E0002B46324621464046BDE8F04100F0E7B9CD
:1007F000000000002D0000002B0000002000000081
:1008000030B4002100F1240408E002F00705D2080A
:10081000303542EA4372DB086554491C52EA03054D
:10082000F3D10468002310A2250707D5A40600D43D
:1008300021B1C46901230DA2641EC46130BC00F063
:10084000BEB910B5044621461068FFF79CFE02466B
:100850002046BDE810400023D2E7D21D22F0070158
:10086000D1E90023CCE700000000000030000000C8
:10087000F0B40D460188090502D5214C7C4402E004
:100880001F4C7C440E34002100F1240608E002F0E5
:100890000F071209E75D42EA03721B097754491CEE
:1008A00052EA0307F3D102780023120704D5702D12
:1008B00006D009B1022311342246F0BC00F07FB902
:1008C00001231034F8E770B504460D462146106840
:1008D000FFF759FE024629462046BDE87040002336
:1008E000C6E7D21D22F00703D3E90023C0E703685F
:1008F000126843F0200303600823C3610023B7E7B5
:10090000FC5700002DE9F05F894604464FF0000ACD
:10091000DFF874B1FB44C0F820A02046E1688847A6
:10092000002874D0252806D0D4E901219047206AF8
:10093000401C2062F1E700265F462046E1688847B8
:100940002028054607DB312D05D2781910F8200C38
:1009500008B10643F1E7B00701D526F00406C4F854
:100960001CA00027C4F818A02A2D09D0284603F09F
:100970006EFA38B304EB8708303DC8F8185019E018
:1009800059F8041B204604EB87029161E16888470F
:10099000012F054618D1E069002820DA26F020064C
:1009A0001DE0D8F8180000EB800005EB400030385F
:1009B000C8F818002046E1688847054603F047FA62
:1009C0000028EED1012F0AD02E2D08D12046E16853
:1009D00088477F1C0546022F46F02006C4DBA0692D
:1009E000002803DA404246F00106A061F00701D07A
:1009F00026F010066C2D0BD0682D09D04C2D39D067
:100A00006A2D35D0742D35D07A2D33D016E038E0EC
:100A1000E1682F4620468847B842054609D16C2F29
:100A200026D04FF48060E16806432046884705469B
:100A300004E06C2F1AD04FF4807006430DB3A5F17B
:100A40004100192802D8203546F400664A46294656
:100A5000204626604E46FFF783FB80B101280BD06D
:100A6000F61D26F0070000F1080956E74020E4E7EC
:100A70008020D8E70020D6E706F104094DE7284694
:100A800052E7206ABDE8F09F8C57000010B5203A6D
:100A9000C0F00B80B1E81850203AA0E81850B1E837
:100AA0001850A0E81850BFF4F5AF5FEA027C24BFED
:100AB000B1E81850A0E8185044BF18C918C0BDE8E4
:100AC00010405FEA827C24BF51F8043B40F8043BAD
:100AD00008BF7047D20728BF31F8023B48BF11F862
:100AE000012B28BF20F8023B48BF00F8012B7047BC
:100AF0004FF000020429C0F0128010F0030C3FF404
:100B0000A9ACCCF1040CBCF1020F18BF00F8012B0A
:100B1000A8BF20F8022BA1EB0C01FFF79BBC5FEAFA
:100B2000C17C24BF00F8012B00F8012B48BF00F85E
:100B3000012B704730B5B0F10A024FEA900E71F107
:100B400000034EEA817EB0EB0E0061EB91014FEAAB
:100B5000101E4EEA017E10EB0E0041EB11114FEA20
:100B6000102E4EEA016E10EB0E0041EB11214FEA00
:100B7000104E4EEA014E10EB0E0041EB11414018B1
:100B800041F100014FEAD00040EA41704FEAD10143
:100B900010EB80054FEA810444EA907444EB0104B1
:100BA0006D1944EB0404521BA3414FF0000348BFEE
:100BB0000A3200D530BD401C41F1000130BD2DE9A5
:100BC000F0470D4699469246044600F12408016814
:100BD000880604D5E06921F01001216000E00120C1
:100BE000A84201DD471B00E00027A1697A1902EB4A
:100BF0000900081AA0612078C00602D42046FFF739
:100C000092FC002608E0D4E901211AF8060090477A
:100C1000206A401C761C20624E45F4DB2078C0061A
:100C20000AD52046FFF77FFC06E0D4E901213020F9
:100C30009047206A401C2062381EA7F10107F4DCAF
:100C400007E0D4E9012118F805009047206A401C0C
:100C50002062281EA5F10105F3DC2046FFF779FC90
:100C60002078000602D50220BDE8F0870120FBE7CE
:100C700070472DE9FF4F0C461E464FF0FF378BB0F3
:100C8000D2E90001DDF860800A908A46C1F30A5576
:100C900005B93D46002108464FF00000BAF1000FAB
:100CA00000F4400005DA00EB80004FF4400101EA57
:100CB00050004FEA9059B9F1010F00DDB9460A988A
:100CC00050EA4A000ED044F61050A5F2FF354543D5
:100CD0002F14B8F1000F1ED07542291E1EDDC9F178
:100CE00000021CE0B8F1010F4FF0000001D03021EC
:100CF00003E0F24305E02154401CB042FBDB3046E8
:100D00000022002121540B99C1F80880C1E900207C
:100D10000FB0BDE8F08FBD1B6D1CDEE74A4600DA60
:100D2000694206A800F0F4FB06AB93E8070003ABAA
:100D300083E8070050460A9900F06DFC8DE8070033
:100D4000A0F500501F3800900398002D0ADD42F2F4
:100D50001F014A460844002303A90390684600F097
:100D6000D6FE09E0A0F500504A461F38002303A92B
:100D70000390684600F0E0FE8DE807000004000CD8
:100D800003D04FF0FF30410800E01046B8F1000FEB
:100D900003D00022009215461EE0751E05D4FFF711
:100DA000C9FE303262556D1EF9D5B34601220843A3
:100DB00002D000227F1C04E02078302801D10022DC
:100DC0007F1E002A099784D01DE0112D07DAFFF756
:100DD000B1FE303262556D1C50EA0102F5D1084374
:100DE00002D00098C8B10EE00021681E05E0235C27
:100DF000625C63542254401E491C8142F7DBAB46BF
:100E0000A81B401E0990002004F80B000B98099ABB
:100E1000C0F80880C0E9002B7AE711264FF00008DF
:100E200057E72DE9F04F88460446D21D22F007010E
:100E300091B0D1E90001CDE90A0102F0E4FF0246D8
:100E40000B98C00F01D02D2007E02068810701D545
:100E50002B2002E0202101EAC000032A099001D0E2
:100E6000072A05DB03464146204600F011FB0BE153
:100E70002078800601D5E06900E00620B8F1650F12
:100E8000814606D0B8F1660F18D0B8F1670F70D15F
:100E900031E00020B9F1110F009001DB112301E0D6
:100EA00009F101030AAA01A90CA8FFF7E2FEDDE996
:100EB0000C70002609F10105834647E001204B46EE
:100EC00000904FF000470AAA01A90CA8FFF7D1FE35
:100ED000DDE90DB00C995D46002610B909F101005D
:100EE0000D18B9EB050003D4C0F1FF3609F1010577
:100EF000A5EB09002BE0B9F1010F01DA4FF0010970
:100F00000020B9F1110F0090484601DD112300E0E7
:100F100003460AAA01A90CA8FFF7ABFEDDE90C7095
:100F20004D4600268346207800070AD4AB4500DAF8
:100F30005D4601A8012D04DD411911F8011C30297D
:100F400007D04F4502DA17F1040F04DA0120824678
:100F50000FE06D1EEEE7002F02DCED1B3E4403E0C8
:100F6000781CA84200DD7D1CB81B00F1010A4FF07F
:100F700000472078000703D4AA4501DB4FF0FF3A71
:100F80000021B7F1004F0DF143088DF8431024D034
:100F900002202B23002F01DA7F422D230A21021E7B
:100FA000A0F1010000DC5FB197FBF1FC97FBF1F2CF
:100FB00001FB1C7C17460CF1300C08F801CDEEE764
:100FC000A8F1010003702188090501D5452100E041
:100FD0006521A0F1010800F8011C09980FA9A1EBF7
:100FE0000807FF1D00B10120411901EBEA70A1695A
:100FF0003844081A401EA0612078C00602D420465A
:10100000FFF791FA099828B1D4E901219047206AA5
:10101000401C20622078C00622D52046FFF783FAC4
:101020001EE0002E04DBB34502DD01A8805D00E078
:101030003020D4E901219047206A401C2062761CB0
:10104000AAF101005FEA000A0AD100F01DFAC068A7
:101050000168405CD4E901219047206A401C20626D
:10106000281EA5F10105DCDC07E0D4E9012118F810
:10107000010B9047206A401C2062381EA7F101072F
:10108000F3DC2046FFF765FA032011B041E60000CB
:101090002DE9F04F04460D46D21D22F0070089B01D
:1010A000D0E900974846394602F0ADFE0246F80FF7
:1010B00001D02D2307E02068810701D52B2302E012
:1010C000202101EAC0038DF820300BB1012000E09F
:1010D0000020032A824601D0072A04DB2946204645
:1010E00000F0D6F93FE12078800601D40D2500E01C
:1010F000E569C7F30A560D2D49DA00214FEA175B5F
:1011000008464FF00000002F00F4400007DA00EB23
:1011100080004FF4400100EBD07001EA60008115BF
:10112000012901DD4FF0FF3100224FEA850CBCF1AF
:10113000180F06D31346ACF118004FF08052C2408E
:1011400003E04FF4801323FA0CF30CF10C0CBCF108
:10115000200F04D3ACF1200C09FA0CF001E007FADF
:101160000CF000294FF0004801DD18B90FE00ED156
:1011700040450CD319EB02095F4121B9404502D12A
:101180009F4329EA0209BBEB175F00D0761C208839
:10119000000502D57B48784402E07A487844193843
:1011A00008AA302302F80A30037C0AF10101002E5C
:1011B0000AF1020A53546A4602DC4FF0300101E0A2
:1011C0004FF031014FF001088DF8001002D0A6F267
:1011D000FF3603E059EA470100D06B4E002D02DCD8
:1011E0002178090704D54FF002082E218DF801104F
:1011F000C44600210BE0C7F303433F01C35C491C15
:101200006D1E02F80830052908F1010801DA002DE9
:10121000F1DC00210CE000EB1973491C1B786D1EFA
:10122000082902F808304FEA091908F1010801DA23
:10123000002DF0DC21688B0602D516E0A8F101082C
:10124000E04505DD02EB080313F8013C302BF5D037
:10125000B8F1000F09DD02EB080313F8013C2E2B57
:1012600003D1090701D4A8F10108002D05DD3E21B5
:1012700002F808106D1E08F10108407C002E02F8EB
:10128000080008F1010804DA2D20764202F808006F
:1012900002E02B2002F808000A214FF47A708642FF
:1012A00008F101080BDB96FBF0F3303302F808304D
:1012B00096FBF0F308F1010800FB136601E0642ED1
:1012C0000CDB642096FBF0F3303302F8083096FB19
:1012D000F0F308F1010800FB136601E00A2E06DBBB
:1012E00096FBF1F0303002F8080008F1010896FB97
:1012F000F1F001FB1060303002F80800A16908F13C
:10130000010808EB050202EB0A00081AA061207828
:10131000C00602D42046FFF706F9216A08AE01EBA9
:101320000A00206204E0D4E9012116F8010B90477D
:10133000BAF1010AF7D22078C00602D52046FFF79D
:10134000F2F86E4609E016F8010B3E280FD0D4E9FA
:1013500001219047206A401C2062B8F10108F2D2B6
:101360002046FFF7F6F809B00320BDE8F08F206AA9
:101370002844206203E0D4E90121302090476D1E0B
:10138000EBD3F8E72E4F000002FCFFFF10B54369D6
:1013900013B1AFF3008001E0FFF7FEF8012010BDAC
:1013A000127800F124010A7000224A700122EDE750
:1013B00011684FF0FF32E9E710B5436913B1AFF39D
:1013C000008001E0FFF780F9012010BD128800F1D4
:1013D000240182840022C2840122EDE711684FF0CB
:1013E000FF32E9E770B516460C46054600F044F8B2
:1013F000036893F80101012806D0FF2C0FD8185D6F
:1014000068B101202C7070BDD3F807013246214627
:1014100003F2071303442846BDE8704018474FF015
:10142000FF3070BD00487047143A00207546FFF742
:10143000F9FFAE4605006946534620F00700854691
:1014400018B020B5FEF750FFBDE820404FF0000671
:101450004FF000074FF000084FF0000B21F007019C
:10146000AC46ACE8C009ACE8C009ACE8C009ACE8DF
:10147000C0098D467047000010B500F005F8001D4A
:1014800010BD00BF4D42000000487047343A0020B4
:101490002DE9F0411F46044603260168072A01F49E
:1014A000006004DB08B116A505E016A503E008B14D
:1014B00015A500E015A521F010002060A069C01E50
:1014C000A0610FB1401EA0612046FFF72CF84FB17C
:1014D000D4E9012138469047206A401C2062C01C94
:1014E000206206E0206AFAE7D4E9012115F8010B31
:1014F0009047761EF8D22046FFF72BF8BDE8F08122
:101500004E414E006E616E00494E4600696E6600A7
:101510002DE9F047814616468AB0354878440DC813
:101520008DE80D0032487844801C03AC0DC884E877
:101530000D0041F69B300844372190FBF1F290FBFF
:10154000F1F5A5F1800501FB12041B3C02D56442B4
:10155000012000E00020DFF898A080460027FA4430
:10156000AAF1BE0A0EE0E0070AD03246684607EB51
:10157000470101230AEB810100F0DEFA8DE8070044
:1015800064107F1C002CEED1194F7F44AE3F19E050
:10159000E80715D007EB04100DF1180A90E80E00CB
:1015A0008AE80E00C068F04201D1981908903246CE
:1015B000012306A903A800F0BFFA03AB83E80700E4
:1015C0006D10641C002DE3D14FF0010332466946D3
:1015D000B8F1000F03A802D000F099FA01E000F082
:1015E000ABFAC9E90001C9F808200AB0BDE8F087E4
:1015F000384C000010B50446AFF300802046BDE82B
:101600001040FEF710BE000001491820ABBEFEE7F7
:101610002600020070475FEA400C08BF91F0000FFF
:101620004FEA8C234FEAC12243EA51514FEA1C5042
:1016300018BF00F5F0404FEA300018BF41F00041FC
:101640005FEA6C5C00F02980BCF1FF3F08BF40F00E
:1016500080407047130C06BF12044FF0100C4FF07F
:10166000000C130E04BF12020CF1080C130F04BF80
:1016700012010CF1040C930F04BF92000CF1020C48
:10168000D30F04BF52000CF1010C11464FF00002C1
:10169000A0F11F00A0EB0C00704711F0004F08BF35
:1016A000704731F000413FF4D5AF0B0C06BF090481
:1016B0004FF0100C4FF0000C0B0E04BF09020CF1A0
:1016C000080C0B0F04BF09010CF1040C8B0F04BFB5
:1016D00089000CF1020CCB0F04BF49000CF1010C86
:1016E000CCF12003A0EB0C0022FA03F302FA0CF277
:1016F00041EA030100F10100704720F07F4C80EACD
:10170000030023F07F47ACEB070303F57C5300F0A5
:10171000004003F1FF032DE980494FEA154B09B45E
:101720004FEA144325EA0B4E24EA03480FF204263D
:1017300006EB132749083E785FEA320203FB06678F
:10174000C7F5000707FB06F64FEA54374FEAD646BF
:1017500006F1020607FB066CCCF1005C4FEA1C4761
:101760002CEA074C07FB06F40CFB06F504EB1546C8
:101770004FEA961634BF00204FF000404FEAD137B1
:1017800006FB07FC4FEA1C4C0CFB0BF7D21B03FBC0
:101790000CF761EB07010CFB0EF7B0EB074072EBA7
:1017A00017420CFB08F734BFA2EB0742B2EB07422B
:1017B00061EB17414FEA0C444FEA910706FB07FC27
:1017C0004FEA1C4C0CFB0BF7B0EBC74072EB5732E7
:1017D00003FB0CF734BFA2EBC742B2EBC74261EB8D
:1017E00057310CFB0EF7B0EBC70072EB57720CFBD6
:1017F00008F734BFA2EBC702B2EBC70261EB577127
:10180000039F4FEA816141EA921104EBCC044FEA55
:10181000D1374FEA826206FB07FC42EA90124FEA98
:1018200080604FEA1C4C0CFB0BF7D21B03FB0CF740
:1018300061EB07010CFB0EF7B0EB074072EB1742B0
:101840000CFB08F734BFA2EB0742B2EB074261EB97
:1018500017414FEA8C554FEA910704EB9C2406FB95
:1018600007FC4FEA1C4C0CFB0BF7B0EBC74072EBCC
:10187000573203FB0CF734BFA2EBC742B2EBC742AF
:1018800061EB57310CFB0EF7B0EBC70072EB5772F0
:101890000CFB08F734BFA2EBC702B2EBC70261EB47
:1018A000577115EB4C254FEA816141EA92114FEADD
:1018B00082624FEAD13742EA901206FB07FC44F1FC
:1018C00000044FEA80604FEA1C4C0CFB0BF7D21B64
:1018D00003FB0CF761EB07010CFB0EF7B0EB0740C5
:1018E00072EB17420CFB08F734BFA2EB0742B2EBD6
:1018F000074261EB174115EB1C154FEA813141EAB4
:1019000092414FEA823242EA90424FEA80304FEAF7
:101910000C7644F1000448EA03434EEA0B484FF0CA
:10192000000EB2EB080C71EB030724BF6246394688
:101930004EEB0E0E4FF0000B0018524149414BEB9D
:101940000B0BB2EB080C71EB03077BF1000B24BF10
:10195000624639464EEB0E0E4FF0000B0018524116
:1019600049414BEB0B0BB2EB080C71EB03077BF11E
:10197000000B24BF624639464EEB0E0E51EA0207B9
:1019800018BF46F0010616EB0E7655F1000254F131
:10199000000103D5BDE88901BDE80088BDE88901E3
:1019A000BDE80048B619524141EB0101A3F1010322
:1019B000704780807F7E7D7C7B7A797877767675BC
:1019C0007473727171706F6E6E6D6C6C6B6A6A6934
:1019D0006868676666656464636362616160605FCE
:1019E0005F5E5E5D5D5C5C5B5B5A5A595958585747
:1019F00057565655555554545353525252515150AF
:101A000050504F4F4F4E4E4D4D4D4C4C4C4B4B4B01
:101A10004A4A4A4949494848484747474746464647
:101A20004545454444444443434343424242424182
:101A30004141002B9C4630D477002BD01CB54FEA97
:101A4000370703B44FF010004FF01001BAF1000F48
:101A500006D0BCF1000FDCBF40F0080040F00801E8
:101A60004FF000000FBCBDE810400BF1010BBBF1C3
:101A7000010F08BF5FEA170722BF12F1010211F13F
:101A800001014FF0004143F1000300F0004043EA40
:101A900000007047F9D35708D0E746EA064613F12D
:101AA000400F4FEA16461FDD13F1200FDFBF16432C
:101AB0000A46002120335B42BED0C3F1200746EA2C
:101AC000064602FA07F74FEA164646EA0706C3F14A
:101AD000200722FA03F201FA07F721FA03F14FF087
:101AE000000342EA0702A7E746EA020646EA06467C
:101AF0004FEA164646EA0106BCBF46EA0646360CE1
:101B00004FF000034FF000024FF0000194E72DE981
:101B1000804C9A46934670B491E8380007C831EA81
:101B2000400C48BF34EA430C03D5FFF7E6FDFFF74E
:101B300080FFF0BCBDE8008C2DE9804C9A469346AE
:101B400070B491E8380007C810F0804F08BF13F058
:101B5000804F03D100F005F8FFF76BFFF0BCBDE844
:101B6000008C20F07F4780EA030023F07F4C07EBD6
:101B70000C03A3F57C5300F00040A3F1FE0392F0A8
:101B8000000F00F0B38095F0000F00F077802DE992
:101B900001494FEA11404FEA144621EA004800FB90
:101BA00006FC24EA064708FB06F607FB08F800FBDC
:101BB00007F718EB06484CEB164C4FEA124B18EBA4
:101BC00007484FEA15464CEB174022EA0B4E0BFB39
:101BD00006FC25EA06470EFB06F607FB0EFE0BFB8E
:101BE00007F71EEB064E4CEB164C4FF000061EEBB3
:101BF000074E4CEB174B18EB0B0840F1000018EBAD
:101C00000E0B58EB000840F100008F1A4FF0000156
:101C10003CBFC943661B14BFB5EB040C00213CBF9D
:101C2000C943F61B4FEA17444EEA8E0E27EA0445D5
:101C30004FEA1C4704FB07622CEA074C05FB07F739
:101C40000CFB05F604FB0CFC16EB074642EB1742B7
:101C500016EB0C4642EB1C421BEB060658EB02024D
:101C6000414146EA9E0601D5BDE80189B6195241B7
:101C700041EB0101A3F10103BDE801894FEA1445DD
:101C80004FEA114724EA054621EA074C05FB07F411
:101C900006FB07F70CFB06F105FB0CFC11EB0741FB
:101CA00044EB17444FEA124711EB0C4144EB1C4440
:101CB00022EA074C05FB07F206FB07F70CFB06F6CA
:101CC00005FB0CFC16EB074642EB174216EB0C46E5
:101CD00042EB1C456A1854F1000148BF7047B61921
:101CE000524141EB0101A3F10103704795F0000F50
:101CF00037D04FEA11424FEA144721EA024624EA5C
:101D0000074C02FB07F106FB07F70CFB06F402FB8E
:101D10000CFC14EB074441EB17414FEA154714EB59
:101D20000C4441EB1C4125EA074C02FB07F506FB7E
:101D300007F70CFB06F602FB0CFC16EB074645EB1F
:101D4000174516EB0C4645EB1C42121951F10001E8
:101D500048BF7047B619524141EB0101A3F101039D
:101D600070474FEA14454FEA114724EA054621EA35
:101D7000074C05FB07F106FB07F70CFB06F24FF0DB
:101D8000000605FB0CFC12EB074241EB174112EB7E
:101D90000C4251EB1C4148BF7047921841EB0101C6
:101DA000A3F101037047FEE7704772B6FEE710B576
:101DB00090F821100022022905D00421816380F8C7
:101DC0002020012010BD01680B6823F00E030B607A
:101DD00001680B6823F001030B6090F84030012488
:101DE00004FA03F1C36B596080F8214080F8202089
:101DF000104610BD10B590F821100024022903D020
:101E00000421816301243DE001680A6822F00E028A
:101E10000A6001680A6822F001020A601A4A016831
:101E2000914201D1012121E0174A1432914201D19E
:101E300010211BE0144A2832914201D1891515E086
:101E4000114A3C32914201D189140FE00E4A5032BE
:101E5000914202D14FF4803108E00B4A6432914242
:101E600002D14FF4801101E04FF08071064A083A28
:101E70005160012180F82110002180F82010416B71
:101E800001B18847204610BD080002402DE9F84FF7
:101E9000DFF8A4910024A9F1040B23464FF00F08AA
:101EA00009F1040AABF1040EBEE00127A7403A4055
:101EB000BA4272D1DFF884C14D68A5EB0C066545C6
:101EC0002BD00DDC032D34D005DC35B3012D19D01A
:101ED000022D2FD11BE0112D16D0122D2AD119E081
:101EE000B6F5881F19D006DCB6F5803F15D0B6F5DB
:101EF000801F1FD111E0B6F5001F0ED0B6F5041FEC
:101F000018D10AE0CB6815E0CB681B1D12E0CB6846
:101F100008330FE0CB680C330CE08B682BB1012B3E
:101F20004FF0080303D0476104E0042302E0076197
:101F300000E00023FF2A01D8064601E000F1040674
:101F40004FEA840501D9A5F12005376808FA05FC98
:101F500027EA0C0703FA05F547EA050737604D68DD
:101F6000ED0060D5364DAE6946F00106AE61AD6953
:101F700024F0030605F001050095324D7719BE687F
:101F8000A5072D0F08FA05FC26EA0C06DFF8B8C0F5
:101F9000604503D14FF0000C17E044E0DFF8ACC01F
:101FA000604502D14FF0010C0FE0DFF8A4C060459E
:101FB00002D14FF0020C08E0DFF898C0604502D172
:101FC0004FF0030C01E04FF0040C0CFA05FC4CEA56
:101FD000060CC7F808C04D68D9F80060ED024D4600
:101FE00001D5164300E096432E604D68DAF8006094
:101FF000AD02554601D5164300E096432E604D686C
:10200000DBF80060AD035D4601D5164300E0964362
:102010002E604D68DEF80060ED03754601D516436D
:1020200000E096432E60641C0A6832FA04F57FF4DF
:102030003CAFBDE8F88F000008040140000011101B
:10204000001002400000014000080140000C014067
:1020500000100140001401400AB1016170470904F9
:10206000FBE7000001488068704700002000002066
:102070000248816802781144816070472000002086
:10208000074810B5016841F010010160032000F01D
:10209000A7F8002000F006F800F050F8002010BD6E
:1020A0000020024030B505461F4887B0C16941F0A5
:1020B0000401C161C06906A900F0040005906846EA
:1020C00000F03CF90398B0B100F058F9400017490E
:1020D000174AB0FBF1F11748491E0260416040F217
:1020E000E7320021C0E903218160816100F01AFB21
:1020F000040003D015E000F041F9E8E70D4800F0D6
:102100003FFB04000DD11E2000F03CF8102D07D23B
:10211000002229461E2000F043F80748056000E031
:10212000012407B0204630BD0010024040420F009D
:1021300000080040F8040020240000200F4808B5E3
:10214000816941F001018161816901F00101009122
:10215000C16941F08051C161C069002200F0805026
:1021600000900F21901E00F01BF80549486820F0F0
:10217000E06040F00070486008BD000000100240C0
:1021800000000140002809DB00F01F0201219140FE
:102190004009800000F1E020C0F800117047000005
:1021A000F0B40E4B1B68C3F30223C3F10704042CE5
:1021B00000D904241D1D072D01D2002300E0DB1EE1
:1021C000012606FA04F56D1E0D409D409E40761EC8
:1021D000164045EA0601F0BC01F029BE0CED00E016
:1021E000064A00F0070110684FF6FF03184040EA66
:1021F0000120034908431060704700000CED00E027
:102200000000FA052DE9F0470D46040067D0DFF81D
:102210001881D8F8000000F00700A8420CD2D8F8C6
:10222000001021F007012943C8F80010D8F8000079
:1022300000F00700A84252D120683C4E810712D519
:10224000400703D5706840F4E060706020780007B4
:1022500003D5706840F4605070607068A16820F029
:10226000F000084370602078C00727D0606801281C
:1022700010D03168022810D0890700292FDA716840
:1022800021F0030101437160FFF7ECFE074641F2C4
:1022900088390CE031688903EFE78901EDE7FFF742
:1022A000E1FEC11B494502D90320BDE8F0877068F3
:1022B000616800F00C00B0EB810FF0D1D8F800108D
:1022C000404601F00701A9420BD9016821F007013E
:1022D00029430160006800F00700A84201D00120F6
:1022E000E3E72078400705D57068E16820F4E060F6
:1022F000084370602078000706D57068216920F4D3
:10230000605040EAC100706000F058F87168084AF7
:10231000C1F30311515CC8400649086006480068D3
:10232000FFF7C0FE0020C0E700200240001002407E
:102330005A6000082C000020240000200F220260B8
:102340000C4A536803F003034360536803F0F0033F
:102350008360536803F4E063C36052684FF4E06342
:1023600003EAD20202610448006800F00700086036
:102370007047000000100240002002400448054958
:1023800000684968044AC1F30221515CC8407047A3
:102390002C000020001002406A6000080448054933
:1023A00000684968044AC1F3C221515CC8407047C3
:1023B0002C000020001002406A6000080E4B596893
:1023C0000E4801F00C02042A11D0082A0FD10C4843
:1023D000C1F38342C903805C0AD55968084AC1F336
:1023E0004041921E515C054A5043B0FBF1F07047EA
:1023F00004494843704700000010024000127A0070
:102400004A60000800093D002DE9F84F04006FD034
:102410002078BE4DC00747D06868C0F3810001280E
:1024200007D06868C0F38100022809D16868C0033A
:1024300006D52868800337D560680028E7D033E0E8
:102440006068B0F5803F0BD010B1B0F5A02F11D06F
:10245000286820F480302860286820F4802002E07A
:10246000286840F480302860606888B1FFF7FAFD82
:10247000064609E0286840F480202860F0E7FFF76E
:10248000F1FD801B642873D828688003F7D50BE022
:10249000FFF7E8FD064604E0FFF7E4FD801B642833
:1024A000F1D828688003F7D42078DFF864828007A9
:1024B0004FF0010A4FF0000939D5686810F00C0F91
:1024C00007D06868C0F38100022809D16868C0039A
:1024D00006D42868800714D52069012808D110E0A7
:1024E0002069B0B1C8F800A0FFF7BCFD064605E0C2
:1024F00007E1FFF7B7FD801B0228C4D828688007D2
:10250000F7D52868616920F0F80040EAC10028602A
:102510000DE0C8F80090FFF7A5FD064604E0FFF7C0
:10252000A1FD801B022823D828688007F7D42078D3
:1025300000072CD57748A169D9B1C0F800A0FFF7F2
:1025400091FD064604E0FFF78DFD801B02280FD8A1
:10255000686A8007F7D570484FF4FA510068B0FBFD
:10256000F1F0009000BF0098411E0091FAD20EE0F9
:102570007CE0C0F80090FFF775FD064604E0FFF729
:1025800071FD801B022871D8686A8007F7D4207813
:1025900040075BD5E8690027C00008D4E86940F02F
:1025A0008050E861E869012700F0805000905B48A6
:1025B0000168C90511D40168834641F48071016046
:1025C000FFF750FD064604E0FFF74CFD801B642832
:1025D0004CD8DBF80000C005F6D5E06801280AD029
:1025E00008B1052813D0286A20F001002862286A63
:1025F00020F0040002E0286A40F001002862E06850
:1026000041F2883B88B1FFF72DFD064609E0286AB4
:1026100040F004002862EEE7FFF724FD811B5945D6
:102620005BD8286A8007F7D50BE0FFF71BFD06464D
:1026300004E0FFF717FD811B59454ED8286A800733
:10264000F7D41FB1E86920F08050E861E069A8B3D1
:102650006968C1F38101022946D00228484606D0A4
:10266000C8F86000FFF7FEFC044639E035E0474655
:10267000C8F86000FFF7F6FC064604E0FFF7F2FC3E
:10268000801B022829D828688001F7D4206AB0F579
:10269000803F05D16868A16820F400300843686075
:1026A000D4E908010843696821F47411084368609B
:1026B000C7F860A0FFF7D6FC044605E023E0FFF76B
:1026C000D1FC001B022808D828688001F7D51AE041
:1026D000FFF7C8FC001B022802D90320BDE8F88FD1
:1026E00028688001F4D40EE00128F7D06868226AD7
:1026F00000F48031914204D1616A00F47010884284
:1027000001D00120EAE70020E8E7000000100240C5
:1027100000004242800442422C0000200070004031
:102720007047704710B5040003D094F83D0010B115
:1027300007E0012010BD002084F83C00204600F096
:102740001EF8022084F83D00211D206801F0DAF90E
:10275000012084F8460084F83E0084F83F0084F8A5
:10276000400084F8410084F8420084F8430084F873
:10277000440084F8450084F83D00002010BD7047F7
:1027800090F83D10012901D001207047022180F806
:102790003D100168CA6842F00102CA6000680B4936
:1027A000884208D0B0F1804F05D00949884202D054
:1027B0000849884204D1816801F00701062903D045
:1027C000016841F00101016000207047002C0140C8
:1027D000000400400008004070472DE9F041044625
:1027E0000068C66805694FF00007A90713D5B1074F
:1027F00011D5F91E016101202077206880698007CA
:10280000204602D0FFF7E8FF04E000F07EF8204603
:1028100000F07CF82777680716D5700714D5216873
:102820006FF004000861022020772068806910F4AE
:10283000407F204602D0FFF7CFFF04E000F065F8AC
:10284000204600F063F82777280715D5300713D501
:1028500021686FF008000861042020772068C069B3
:102860008007204602D0FFF7B7FF04E000F04DF8E4
:10287000204600F04BF82777E80616D5F00614D569
:1028800021686FF010000861082020772068C06977
:1028900010F4407F204602D0FFF79EFF04E000F0D6
:1028A00034F8204600F032F82777E80708D0F00720
:1028B00006D021686FF001000861204600F028F87A
:1028C000280608D5300606D521686FF0800008611B
:1028D0002046FFF725FF680608D5700606D5216853
:1028E0006FF040000861204600F01CF8A8060AD5E9
:1028F000B00608D521686FF0200008612046BDE8C9
:10290000F041FFF70EBFBDE8F0817047704700004F
:1029100000680349884201D1FFF7AABB7047000055
:10292000000800407047704770470000F8B5016824
:1029300004460868CA684B6910F00F0F4FF0000595
:1029400059D003F0010602F49077374365D0C107F0
:1029500005D0D10503D5616C41F0010161644107E7
:1029600005D5D90703D0616C41F00201616481078C
:1029700005D5D90703D0616C41F0040161640107FA
:1029800007D502F02001314303D0616C41F008010A
:102990006164616C00293AD0800604D5900602D5A6
:1029A000204601F033F920684069616CC0F3801063
:1029B000090700D460B3204601F0E8F820684069B8
:1029C000400621D52068143050E8001F21F0400156
:1029D00040E80012002AF5D1E06BA8B16D494163CF
:1029E000E06BFFF707FA002811D0E06B416B01B0F4
:1029F000BDE8F040084783060FD593060DD5204665
:102A0000BDE8F84001F002B92046FFF78DFFF8BDA0
:102A10002046FFF789FF6564F8BD266B2023012E51
:102A20007CD1C6067AD5D60678D508684868009065
:102A300048694FF00206400640D5E16B08684068DF
:102A40000004000CE8D0A28D8242E5D9E0858869B7
:102A500020282DD020680C3050E8001F21F4807110
:102A600040E80012002AF5D12068143050E8001F19
:102A700021F0010140E80012002AF5D1206814304D
:102A800050E8001F21F0400140E80012002AF5D173
:102A900084F84230256320680C3050E8001F21F094
:102AA000100140E80012002AF5D1E06BFFF77FF932
:102AB0006663A08DE18D401A81B22AE0A08DE18D80
:102AC000401A81B2E08D0028A6D00029A4D0206849
:102AD0000C3050E8002F22F4907240E80027002FBD
:102AE000F5D12068143050E8002F22F0010240E8B0
:102AF0000027002FF5D184F84230256320680C3080
:102B000050E8002F22F0100240E80023002BF5D1FE
:102B100066632046FFF707FFF8BDFFE705062BD5E4
:102B2000150629D594F841002128F5D1A068B0F503
:102B3000805F01D12069B0B1206A411C2162216807
:102B400000784860E08C401E0004000CE084E3D173
:102B50002068C16821F08001C1602068C16841F02F
:102B60004001C160D8E7206A0088C0F308004860CF
:102B7000206A801C2062E5E74006CDD55006CBD503
:102B8000CA68204622F04002CA6084F8413000F052
:102B9000C6F8C1E77D3B000870B5040004D094F886
:102BA0004100002510B106E0012070BD84F84050BE
:102BB000204600F023F8242084F841002068C168F2
:102BC00021F40051C160204601F082F820680169BB
:102BD00021F4904101612068416921F02A0141619D
:102BE0002068C16841F40051C1606564202084F808
:102BF000410084F842006563002070BD30B585B0A7
:102C000000240094019402940394006818498842B7
:102C10002CD11848816941F480418161816901F4B6
:102C200080410491816941F0040181618069124D04
:102C300000F0040004904FF4007000900220019016
:102C40000320039069462846FFF720F92815CDE9AF
:102C50000004694628460294FFF718F9002205216E
:102C60002520FFF79DFA2520FFF78CFA05B030BD2F
:102C700000380140001002400008014070472DE973
:102C8000F843044690F841001F4615460E4620289A
:102C900002D00220BDE8F8838EB185B100206064C7
:102CA000212084F84100FFF7DDF9A5848146E58401
:102CB000A0684FF02008B0F5805F02D003E001204B
:102CC000E8E7206910B1354600260EE000250CE04B
:102CD0008021204601F058F8A0B9BDB115F8010BCC
:102CE00021684860E08C401EE084E08C4B464FF049
:102CF000000200970028EBD14FF04001204601F080
:102D000043F840B184F841800320C3E736F8020B52
:102D1000C0F30800E4E784F841800020BAE7704778
:102D2000FEE700001CB5094A0021094801F0D4F86B
:102D300008494FF40072086000212820CDE9000105
:102D40000B4605A10A4802F09DFA1CBD246000084C
:102D5000793A00081C00002052544F535F437265BB
:102D60006174655F416C6C5F5461736B730000004C
:102D7000F13200082DE9F04385B000242848009482
:102D8000019402940394816941F010018161816989
:102D900001F010010491816941F020018161816994
:102DA00001F020010491816941F004018161816990
:102DB00001F004010491816941F008018161806999
:102DC000012200F00800DFF85C80550304902946DA
:102DD0004046FFF741F9DFF850904FF4407601226A
:102DE00031464846FFF738F91127CDE9005702254B
:102DF00069464046CDE90245FFF748F888208DE84E
:102E0000310069464846FFF741F869464846CDE932
:102E10000245CDE90067FFF739F805B0BDE8F0835A
:102E20000010024000100140000C01400C4810B599
:102E30000A4901604FF4E1314160002181600C22B8
:102E4000C160C0E904128161C161FFF7A5FE0028DD
:102E500003D0BDE81040FEF7A8BF10BD0038014008
:102E6000B0040020FEE7FEE710B50021074C0A463B
:102E7000002004EBC1131A54401CC0B28028FAD3BE
:102E8000491CC9B20829F3D310BD0000B0000020CE
:102E9000F0B501EB030C20E00446871819E07F2C05
:102EA00015D8002913DB3F2911DCCB1701EB537632
:102EB000F5100B4B26F0070603EBC5132344A1EBDB
:102EC000060E1D78012606FA0EF6B5431D70641C29
:102ED00024B2A742E3DC491C09B28C45DCDCF0BD1E
:102EE000B000002010B500214FF47A720020401C81
:102EF0009042FCD3491C9142F8D3064C01221102A6
:102F00002046FFF7A9F820460122BDE810405102F3
:102F1000FFF7A2B8000C01402DE9F047164E00243F
:102F200007464FF080084FF40079B51528FA04F0F1
:102F3000384201D0012200E0002249463046FFF726
:102F40008BF8012229463046FFF786F800222946F1
:102F50003046FFF781F8641CE4B2082CE6D3012266
:102F600029463046FFF778F829463046BDE8F04755
:102F70000022FFF771B80000000C014070B501227B
:102F80000B4D540221462846FFF766F8012216022F
:102F900031462846FFF760F8002221462846FFF711
:102FA0005BF831462846BDE870400022FFF754B870
:102FB000000C014070B50A4D4FF400740022214608
:102FC0002846FFF749F8012211022846FFF744F886
:102FD00021462846BDE870400122FFF73DB80000B9
:102FE000000C014010B5FFF77DFFAE2000F056F950
:102FF000D52000F053F9802000F050F9A82000F00F
:103000004DF93F2000F04AF9D32000F047F90020A5
:1030100000F044F9402000F041F9A12000F03EF911
:10302000C82000F03BF9DA2000F038F9122000F057
:1030300035F9812000F032F9CF2000F02FF9D920A6
:1030400000F02CF9F12000F029F9DB2000F026F93E
:10305000302000F023F9A42000F020F9A62000F091
:103060001DF98D2000F01AF9142000F017F9AF2097
:1030700000F014F9FFF7F8FEBDE8104000F0FAB8D0
:1030800010B50C4640F0B00000F008F9102040EAFE
:10309000141000F003F904F00F00BDE8104000F038
:1030A000FDB8000008B5082B0DD0062B0AD10A4B3D
:1030B00002EB420203EB4202C03A009208230622CE
:1030C00000F00EF808BD054B03EB0212A2F50072EA
:1030D000102300920822F3E7F45C0008045700086C
:1030E0002DE9FF4F1F4616460D460024DDF834A09B
:1030F0000098FFF7CDFE7F1EF81707EB50700121F7
:10310000DFF88CB001EBE00E3DE0002037E00099E5
:103110000B187F2B31D8E91705EB5171CA1021F03C
:103120000701691A002D03DA521E083112B209B2E2
:103130002244072A0ED804FB06F70AEB00080BEB23
:10314000C21917F8087019F803C08F404CEA070C31
:1031500009F803C0571C072F0FD80BEBC21204FB52
:1031600006F70AEB000C1A4417F80C7012F8803FAF
:10317000C1F10801CF403B431370401CC0B2B042C4
:10318000C5D3641CE4B2A645BFDCBDE8FF8F0000D8
:10319000B00000202DE9FF4F002683B098469346EB
:1031A00081463446DFF8C4A058E010068DF80420AC
:1031B00006F101060ED400208DF8050009EB04008D
:1031C000B6B200B243460499FFF76CFF04EB080067
:1031D00084B243E0B0B21BF80010002942D0401C7A
:1031E00086B200208DF805108DF80600054606E031
:1031F000384601A9FDF754F968B16D1CADB2C5EBB5
:10320000C50000EB800101EB0A00074618A1FDF79D
:1032100047F90028ECD1B8F1080F03D0B8F1060F38
:103220001CD111E0C5EBC50000EB800101EB0A00E9
:10323000C01C009009EB0400102300B21A46049948
:10324000FFF74EFF103408E009EB040000B206233C
:103250003F220499FFF726FFA41DA4B21BF8062005
:10326000002AA2D107B0BDE8F08F00002E5F000851
:103270000000000070B5084D002400212046FFF733
:10328000FFFE05EBC410802100F019F8641CE4B2C5
:10329000082CF2D370BD0000B000002010B5044629
:1032A000FFF76CFE7820FFF737FE0020FFF734FEB3
:1032B0002046FFF731FEBDE81040FFF77BBE70B53A
:1032C0000D460646FFF75AFE7820FFF725FE402000
:1032D000FFF722FE002404E0305DFFF71DFE641CB2
:1032E000E4B2AC42F8D3BDE87040FFF763BE000023
:1032F0001CB5FFF777FE7CA000F070FC4FF4205166
:1033000083A000F06BFC01F0E7FC014687A000F011
:1033100065FC01F0E7FC01468BA000F05FFC91A08A
:1033200000F05CFC9BA000F059FC01F0D5FC0146CC
:10333000A4A000F053FC01F0D5FC0146A8A000F0C9
:103340004DFCADA000F04AFC642001F099FBB6A052
:1033500000F044FC01F0C0FC01469AA000F03EFCE5
:1033600001F0C0FC01469EA000F038FCA2A000F0D5
:1033700035FC642001F084FBB7A000F02FFC01F0C5
:10338000ABFC01468FA000F029FC01F0ABFC01462C
:1033900093A000F023FC98A000F020FC642001F032
:1033A0006FFBB8A000F01AFC01F096FC014685A066
:1033B00000F014FC01F096FC014689A000F00EFC20
:1033C000BCA000F00BFC642001F05AFBC4A000F08C
:1033D00005FC01F081FC01467AA000F0FFFB01F042
:1033E00081FC01467EA000F0F9FBB2A000F0F6FBE4
:1033F000642001F045FBC6481824CDE900400023B5
:103400008022C4A1C74801F03DFF012802D0C6A018
:1034100000F0E4FBCAA000F0E1FB01F05DFC014616
:1034200068A000F0DBFB01F05DFC01466CA000F041
:10343000D5FB71A000F0D2FB642001F021FBB44861
:103440000023001DCDE900408022C9A1CD4801F034
:1034500019FF012802D0CCA000F0C0FBAC4800232B
:10346000001FCDE900404FF48072CEA1D14801F099
:1034700009FF012802D0D0A000F0B0FBD4A000F0DA
:10348000ADFB01F029FC01464EA000F0A7FB01F0C6
:1034900029FC014652A000F0A1FB86A000F09EFB93
:1034A000642001F0EDFAD6A000F098FB01F014FCC6
:1034B000014644A000F092FB01F014FC014648A034
:1034C00000F08CFB7BA000F089FB642001F0D8FAAF
:1034D000642001F0D5FAD7A000F080FBBDE81C40C5
:1034E000002001F0F3BA00002D2D2D2D2D2D2D2DB6
:1034F0002D2D20B3F5CABCC4DAB4E6BCECB2E92089
:103500002D2D2D2D2D2D2D2D2D2D0D0A00000000E2
:10351000C5E4D6C3B5C4D7DCB6D1B4F3D0A13A2044
:10352000256420D7D6BDDA0D0A000000B3F5CABC69
:10353000BFC9D3C3B6D1C4DAB4E63A20256420D7D4
:10354000D6BDDA0D0A000000C0FACAB7D7EED0A186
:10355000BFC9D3C3B6D13A20256420D7D6BDDA0D72
:103560000A0000002D2D2D2D2D2D2D2D2D2D2D2D35
:103570002D2D2D2D2D2D2D2D2D2D2D2D2D2D2D2D7B
:103580002D2D2D2D2D2D2D2D2D2D2D2D2D2D0D0AAE
:10359000000000002D2D2D2D2D2D2D2D2D2D20CA7F
:1035A000C2BCFED7E9B4B4BDA8BAF3C4DAB4E6BC71
:1035B000ECB2E9202D2D2D2D2D2D2D2D2D2D0D0A8B
:1035C00000000000B5B1C7B0BFC9D3C3C4DAB4E6C8
:1035D0003A20256420D7D6BDDA200D0A000000006D
:1035E000C0FACAB7D7EED0A1C4DAB4E63A2025644F
:1035F00020D7D6BDDA0D0A002D2D2D2D2D2D2D2DE8
:103600002D2D2D2D2D2D2D2D2D2D2D2D2D2D2D2DEA
:103610002D2D2D2D2D2D2D2D2D2D2D2D2D2D2D2DDA
:103620002D2D2D0D0A0000002D2D2D2D2D2D2D2D94
:103630002D2D20D0C5BAC5C1BFB4B4BDA8BAF3C43E
:10364000DAB4E6BCECB2E9202D2D2D2D2D2D2D2D3B
:103650002D2D0D0A000000002D2D2D2D2D2D2D2D91
:103660002D2D20B6D3C1D0B4B4BDA8BAF3C4DAB4FA
:10367000E6BCECB2E9202D2D2D2D2D2D2D2D2D2D3F
:103680000D0A00002D2D2D2D2D2D2D2D2D2D20CF72
:10369000B5CDB3C8CECEF1B4B4BDA8BAF3C4DAB4D4
:1036A000E6BCECB2E9202D2D2D2D2D2D2D2D2D2D0F
:1036B0000D0A00002D2D2D2D2D2D2D2D2D2D2D2DD7
:1036C0002D2D2D2D2D2D2D2D2D2D2D2D2D2D2D2D2A
:1036D0002D2D2D2D2D2D2D2D2D2D2D2D0D0A0000B7
:1036E0002D2D2D2D2D2D2D2D2D2D20B4A6C0EDC829
:1036F000CECEF1B4B4BDA8BAF3C4DAB4E6BCECB231
:10370000E9202D2D2D2D2D2D2D2D2D2D0D0A0000D7
:103710000800002052544F535F4F4C4544C8CECE52
:10372000F1000000413A000852544F535F4F4C459E
:1037300044C8CECEF1B4B4BDA8CAA7B0DC0D0A000F
:103740002D2D2D2D2D2D2D2D2D2D20B8A8D6FAC89F
:10375000CECEF1B4B4BDA8BAF3C4DAB4E6BCECB2D0
:10376000E9202D2D2D2D2D2D2D2D2D2D0D0A000077
:1037700052544F535F4C45445F50433133C8CECE13
:10378000F10000006538000852544F535F4C454427
:103790005F503133C8CECEF1B4B4BDA8CAA7B0DCF7
:1037A0000D0A000052544F535FBCE0BFD8C8CECEC4
:1037B000F10000009538000852544F535FBCE0BF41
:1037C000D8C8CECEF1B4B4BDA8CAA7B0DC0D0A00EB
:1037D0002D2D2D2D2D2D2D2D2D2D20CAE4B3F6C8E8
:1037E000CECEF1B4B4BDA8BAF3C4DAB4E6BCECB240
:1037F000E9202D2D2D2D2D2D2D2D2D2D0D0A0000E7
:103800002D2D2D2D2D2D2D2D2D2D20C8EDBCFEB6B1
:10381000A8CAB1C6F7B4B4BDA8BAF3C4DAB4E6BC5A
:10382000ECB2E9202D2D2D2D2D2D2D2D2D2D0D0A18
:10383000000000003C3C3C44656C65746520746885
:103840006973207461736B20616E642046726565D4
:1038500020746865206D656D6F72793E3E3E0D0A7D
:10386000000000000A4C4FF400564FF4FA75002295
:1038700031462046FEF7F0FB284601F001F901220F
:1038800031462046FEF7E8FB284601F0F9F8EEE75E
:1038900000100140424C8AB0607820B901F01CFA57
:1038A0002061012060704FF00A0BA046D8F8140088
:1038B000401CC8F8140001F00FFA814601F012FA1A
:1038C00000F0B2FF029001F037FD00F0B3FFD8F82E
:1038D00018100446884201D2C8F81840322C01D290
:1038E000012700E00027D8F81010A9EB0105002DF2
:1038F00001DD2E4600E06E42D8F81400B0FBFBF26A
:1039000082460BFB12A020B1B6F5FA7F01D8322C0B
:1039100001D2012000E00020002832D0142105A8A7
:10392000FCF796FD5046B0FBFBF20BFB1200DA46AB
:1039300020B1B6F5FA7F03D91AA104E01DA102E077
:10394000322C03D21FA105A8FCF7F2FCD8F81810FE
:10395000029801AA0491009582E8910046464B46E0
:1039600005A91CA0D8F8142000F038F97169B1FB42
:10397000FAF20AFB121060B900207061401EB061BB
:1039800007E0CDE900474A46514621A0029B00F0DE
:1039900025F941F28830C8F8109001F071F885E7F8
:1039A000000000205B436F6E646974696F6E2032A3
:1039B000205D00005B436F6E646974696F6E203137
:1039C000205D00005B436F6E646974696F6E203325
:1039D000205D00002573205B256C755D20483D252A
:1039E0006C7528252B6C642920543D256420536D6B
:1039F000696E3D257520536C6F773D2575205065A8
:103A000072696F644D696E3D25750D0A00000000F6
:103A100053797374656D204F4B3A5B256C755D204F
:103A2000483D256C7520543D256420536D696E3DDD
:103A3000257520536C6F773D25750D0A0000000039
:103A4000074C207838B10021062306A20846FFF76C
:103A5000A1FBFFF70FFC0A2001F012F8F1E70000CC
:103A60000000002057656C636F6D6520424153452F
:103A70004441544121000000002001F027B810B556
:103A80004FF0E020006901F05DFC012803D0BDE8A3
:103A9000104001F081B910BD30B58FB028216846C3
:103AA000FCF7D6FC14210AA8FCF7D2FC0120010483
:103AB00000248DE8130004904FF4E010CDE90810C5
:103AC000022507956846FEF79FFC08B172B6FEE72F
:103AD0000F20CDE90A054FF48060CDE90C400221AA
:103AE0000AA80E94FEF78EFB002801D072B6FEE7FE
:103AF0000FB030BD704700000148FEF76EBE0000F9
:103B0000F8040020F0B50268194C1A4D1A4E4FF017
:103B10008047A04205D0B84203D0A84201D0B042AD
:103B200003D122F070034A681A43A04205D0B8427C
:103B300003D0A84201D0B04203D122F44073CA6836
:103B40001A434B6922F080021A4302608A68C262FB
:103B50000A688262A04201D10969016301214161C1
:103B60000169C90703D0016921F001010161F0BDBC
:103B7000002C0140000400400008004010B5406ADD
:103B80000021C185C184FEF7CFFE10BD01680C3154
:103B900051E8002F22F4907241E80023002BF5D168
:103BA0000168143151E8002F22F0010241E800239E
:103BB000002BF5D1016B012909D101680C3151E8C5
:103BC000002F22F0100241E80023002BF5D1202124
:103BD00080F8421000210163704700000FB400B567
:103BE000A1B023AA68462299FCF790FB6846FCF72F
:103BF000C3FB82B24FF0FF3369460348FFF73FF83B
:103C000021B05DF814FB0000B004002008B590F866
:103C10004210222901D0022008BD81684FF4805350
:103C2000994201D1026922B1826A99421BD049B1FD
:103C30000AE00268816A5268C2F308020A80816A57
:103C4000891C08E0016971B10168496801F07F01D0
:103C50001170816A491C8162C18D491E0904090CD9
:103C6000C18503D01BE001684968F1E70168CA68B3
:103C700022F02002CA600168CA6822F48072CA6019
:103C800001684A6922F001024A61202180F842104D
:103C900000214163026B012A03D0FEF7EFFF0020F1
:103CA00008BD016301680C3151E8002F22F01002B9
:103CB00041E80023002BF5D101680A68D20602D53D
:103CC0000A6849680091818DFEF72DFEE7E7000044
:103CD00070B5044600680169E26821F4405111435F
:103CE0000161A16820690143606901432068C268DD
:103CF00041F20C639A430A43C26020684169A26999
:103D000021F44071114341611E492068884202D16B
:103D1000FEF744FB01E0FEF731FB00EBC00101EBD5
:103D20000011606864228000B1FBF0F3B3FBF2F392
:103D30006FF018067343B1FBF0F5B1FBF0F605EB3D
:103D40008305322303EB0515B5FBF2F5B6FBF2F65E
:103D500005F0F00505EB0615B1FBF0F6B1FBF0F050
:103D6000B0FBF2F06FF01801484306EB800003EB64
:103D70000010B0FBF2F0216800F00F0028448860CA
:103D800070BD0000003801402DE9F8431F46904601
:103D90000D460446089E23E0701C21D0FEF762F910
:103DA000C01BB0421AD8CEB12068C168490717D5E8
:103DB000802D15D0402D13D00168C94309070FD4B9
:103DC00001680025406800902046FFF7DFFE0820CC
:103DD000606484F840500120BDE8F8830320FBE7CD
:103DE0002068006835EA000004D000204045D3D0A8
:103DF0000020F1E70120F9E70148FEF797BD000038
:103E0000B0040020FEE7490050EAC12018BF04209A
:103E10004A0D18BF40F0010040F2FF72B2EB515F53
:103E200008BF40F00200012808BF052070470907BD
:103E3000090E002804DB00F1E02080F80014704730
:103E400000F00F0000F1E02080F8141D70473038BA
:103E50000A2801D20120704700207047FEF710F9B0
:103E6000FFF71AFEFEF786FFFEF7E0FF00F006F808
:103E7000FEF758FF00F014F8FEE70000EFF30580AE
:103E800010B16FF0050070470448016811B14FF0A0
:103E9000FF30704701210160002070478000002042
:103EA00010B5EFF3058010B16FF0050010BD0848A4
:103EB0000168012902D04FF0FF3010BD054A0021F2
:103EC00082F8141D0221016000F08AFE002010BD5E
:103ED000800000200BE000E02DE9FF410B464FF091
:103EE0000005EFF30581039549BB40B380261821F7
:103EF00000244AB3176807B13C46976907B13946B1
:103F00004F1E382F02D21779FF0703D0002004B0CC
:103F1000BDE8F081576907B1BE08D2F808C0BCF10E
:103F2000000F0DD0D5685C2D18D312693AB137B1A6
:103F30008DE806103246214601F0D1F903900DE0DC
:103F4000D7685FB912694AB903AACDE90012B2B2C3
:103F5000214601F097F9012800D003950398D6E790
:103F60002DE9F041134E0F460446F5683068001DF8
:103F700000F046FC601C07D137B13168BDE8F04164
:103F80000D48091D00F09ABC30682C44AC424460D6
:103F9000316805D2B06BBDE8F041091D00F076BC78
:103FA000706B091D00F072FCB06A844200D2B462EA
:103FB000BDE8F08130000020300A00202DE9F041FA
:103FC000054600F087FC2D4EB068401CB06030689C
:103FD0002B4F10B1706930B32BE03560B068012809
:103FE00027D1002404EB840007EB800000F040FCA4
:103FF000641C382CF6D3234800F03AFC21481430D6
:1040000000F036FC1F48283000F032FC1D483C30E0
:1040100000F02EFC1B48503000F02AFC1948706359
:104020001430B06305E03068E96AC06A884200D89D
:104030003560706A401C70626864E86A3169884261
:1040400000D9306100EB800007EB8000291D00F0F3
:1040500035FC00F05FFC706900280CD03068E96A1C
:10406000C06A884207D208494FF080500860BFF309
:104070004F8FBFF36F8FBDE8F0810000300000204C
:1040800080050020E009002004ED00E038B500F0D4
:1040900021FC104C2068C8B90F4800F0E9FB0E481D
:1040A000143000F0E5FB0C48E060143020610A4B4E
:1040B0000020F03B009003F1500210210A2000F094
:1040C00081FE206010B105A100F0A6FCBDE83840DB
:1040D00000F020BC6C000020340B0020546D7251A5
:1040E0000000000030B4026C0B46002A0BD0C168FF
:1040F0001144C1608468A14201D30168C16030BC31
:104100001846FCF758B930BC70472DE9F041856B73
:10411000174604460026026C82B1C7B1E068FCF77E
:104120004AF9E168206C091AE1602268914202D2E2
:10413000A168081AE060022F16D017E02068A8B91D
:10414000A06801F077F906460020A0600EE06068E4
:10415000FCF731F9216C606808446060A16888420E
:1041600004D32068606001E005B16D1E6D1CA5637D
:104170003046BDE8F08110B5044690F8590058B1BA
:1041800001280CD002280FD0502080F31188BFF3F3
:104190004F8FBFF36F8FFEE7206B00F0CFFB204601
:1041A000BDE8104000F0CABB10BD000010484FF43D
:1041B0002051420706D0C01D0D4920F00700411ACA
:1041C000C1F520510B4A00230144C2E9000308391C
:1041D000183A21F0070111604B600B600B1AC0E91F
:1041E000001393604FF0004053605061704700002F
:1041F000141200209C000020134E144DA6F29C4780
:104200004FF08058DFF8489011E000F063FBF06851
:10421000C468201D00F0F4FAA868401EA860686811
:10422000401E686000F076FB2046FFF7A4FF686838
:104230000028EAD138680128F9D9C9F80080BFF30D
:104240004F8FBFF36F8FF2E71C0A00203000002071
:1042500004ED00E070B51D46049C49B12260C4E93C
:104260000F010121204600F0E1FD84F84C5070BDA3
:104270002460F4E72DE9F05F0E46DDE90B94174664
:10428000834691009A460A9DA522206BFCF7D8F838
:104290006FF00301206B01EB8701084420F0070752
:1042A000780707D0502080F31188BFF34F8FBFF3FA
:1042B0006F8FFEE74FF0000866B100202218315CD6
:1042C00082F83410315C11B1401C1028F6D384F808
:1042D000438001E084F83480382D00D33725E5622F
:1042E000C4E91358201D00F0CEFA04F1180000F0C4
:1042F000CAFA2461C5F138006462A061C4F8548030
:1043000084F8588052465946384600F067FA2060D3
:10431000B9F1000F01D0C9F80040BDE8F09F0000DE
:1043200030B5114900E011460A688242FBD34B6860
:104330005C18844203D140681844486008464368CA
:104340001C18944209D1084C183C2468A24209D098
:1043500052681A4442600A6812680260814200D0C2
:10436000086030BD0460F9E79C00002070B50024AF
:1043700041600B4D0061914206D8D11A8269914289
:1043800006D2011D286907E09A4203D2994201D35F
:10439000012403E0011DE86800F078FA204670BDB2
:1043A0006C00002010B5044600F094FAA06B20B118
:1043B000002400F0AFFA204610BD0124F9E7000008
:1043C00030B587B03C4D6EE00198002806DADDE993
:1043D0000301029A90470198002864DB039C6069FE
:1043E00010B1201D00F00CFA05A800F0D7F8024625
:1043F00001980A2857D2DFE800F00505052D334A59
:1044000005052D3394F8280040F0010084F82800B9
:104410000298A169034601442046FFF7A7FF68B34D
:10442000216A2046884794F8280040073BD50020A1
:1044300000900298A169002342181946204601F015
:10444000FFF8D8B9502080F31188BFF34F8FBFF326
:104450006F8FFEE714F8280F20F00100207022E093
:1044600094F8280040F0010084F828000298A06128
:1044700028B1811813462046FFF778FF13E050203B
:1044800080F31188BFF34F8FBFF36F8FFEE794F86F
:104490002800810703D4204600F050FA03E020F002
:1044A000010084F82800002201A9286800F014FE09
:1044B000002889D107B030BD6C0000202DE9FC41F7
:1044C0000F46054600F0CEFB01A800F067F8044651
:1044D000019818B101F024F8BDE8FC81254EAFB178
:1044E00030690068D0B30027291B3A46306800F0D5
:1044F000A5FA01F015F80028EED11F494FF08050C1
:104500000860BFF34F8FBFF36F8FE5E7A542EBD88D
:1045100001F006F8F0682746C068C468201D00F066
:104520006FF994F82800410719D5A0692B46411965
:104530003A462046FFF71AFFA8B10020034601467D
:1045400000902A46204601F07BF860B9502080F3A5
:104550001188BFF34F8FBFF36F8FFEE707E020F0A6
:10456000010084F82800216A20468847B4E7012723
:10457000BAE700006C00002004ED00E00648416B43
:10458000096829B1416BC968C96849688162704787
:104590004FF0FF31FAE700003000002070B505460B
:1045A00000F0DEFE064E0446B068844203D200F0FE
:1045B00009F8012000E0002028602046B46070BDAA
:1045C0006C000020F8B5194E20E0C068C46805688A
:1045D000201D00F015F9216A2046884794F828002C
:1045E000400713D5A0692844A84206D92461606019
:1045F000211DF06800F04AF908E00020034601465A
:1046000000902A46204601F01BF838B1F068016896
:104610000029DAD13169C6E90310F8BD502080F3D2
:104620001188BFF34F8FBFF36F8FFEE76C00002040
:10463000002101E0401C491C0278A52AFAD0C1F3F0
:104640008F00704708484068401C4FF0500080F3CE
:10465000118804D0BFF34F8FBFF36F8FFEE7BFF316
:104660004F8FBFF36F8FFEE7A4000020084CE06877
:10467000016839B1002139B10020FFF71FFFFFF7B2
:104680009FFEF4E70121F6E7C0680068F5E7000047
:104690006C0000202DE9F041044600F01BF994F96C
:1046A000455004F1240609E0606A48B1304600F044
:1046B000FFFE08B100F05AFA6D1E6DB2002DF3DC5A
:1046C0004FF0FF3684F8456000F024F900F002F95D
:1046D00094F9445004F1100709E0206948B13846C4
:1046E00000F0E6FE08B100F041FA6D1E6DB2002D3B
:1046F000F3DC84F84460BDE8F04100F00BB9000041
:104700002DE9F0410546002600F0ACFA324F38683A
:1047100008B9FFF74BFD786905424ED1C5B308359E
:1047200068070ED005F00700C0F1080005446807CF
:1047300007D0502080F31188BFF34F8FBFF36F8FE6
:10474000FEE72DB37868854237D8234918310846EB
:10475000046801E0214604466068A84202D220684D
:104760000028F7D13868844227D00E682068086096
:1047700060680836411B10290FD96019420708D01C
:10478000502080F31188BFF34F8FBFF36F8FFEE788
:1047900013E041606560FFF7C3FD61687868401A07
:1047A0007860BA68904200D2B8607869014300200E
:1047B000C4E90001F868401CF86000F0B1FE700721
:1047C00007D0502080F31188BFF34F8FBFF36F8F56
:1047D000FEE73046BDE8F0818400002010B5031FDD
:1047E0004FF080741C601B1F21F001011960191F1C
:1047F000024B0B60143940380A6010BD4546000872
:10480000D0E9013201699A60D0E901235A604A680F
:10481000824201D182684A60002202610868401E1B
:104820000860086870470000014880687047000011
:104830003000002008B902480068006BFFF7F8BE9E
:1048400030000020034B036003F15C00086080200F
:10485000106070475C0B0020044B036003F15C00A8
:1048600008604FF48070106070470000B80D0020A1
:1048700000F108014FF0FF32C0E90112C16001618F
:1048800000210160704700210161704730B50C685C
:10489000621C02D000F1080202E0026904E01A463C
:1048A00053681D68A542FAD953684B6099608A60C5
:1048B000516008610168491C016030BD42684A606E
:1048C00093688B6093685960916008610168491C26
:1048D00001607047502080F31188BFF34F8FBFF302
:1048E0006F8F0A494868401C486001280CD108486D
:1048F000006810F0FF0F07D0502080F31188BFF33D
:104900004F8FBFF36F8FFEE770470000A4000020B9
:1049100004ED00E00849486828B1401E486001D114
:1049200080F311887047502080F31188BFF34F8FB8
:10493000BFF36F8FFEE70000A400002070B50028D1
:104940002AD0164DA0F1080460686969084207D1B1
:10495000502080F31188BFF34F8FBFF36F8FFEE7B6
:1049600022683AB1502080F31188BFF34F8FBFF314
:104970006F8FFEE78843606000F074F960686968D3
:10498000084468602046FFF7CBFC2869401C28617A
:10499000BDE8704000F0C4BD70BD00008400002080
:1049A0004FF0E02000210161816105494FF47A72E6
:1049B0000968B1FBF2F1491E4161072101617047AD
:1049C0002C00002010B5FBF77DFC114910280ED3F8
:1049D00000F1E02090F8F0030A78904207D25020CE
:1049E00080F31188BFF34F8FBFF36F8FFEE7094845
:1049F0000068896800F4E060884207D9502080F39D
:104A00001188BFF34F8FBFF36F8FFEE710BD00001B
:104A1000A40000200CED00E010B5074B002253F875
:104A200032401CB1521C082AF9D310BD43F8321091
:104A300003EBC201486010BD4005002070B515466B
:104A40000E460446FFF746FF94F944100020491C27
:104A500001D184F8440094F94510491C01D184F82F
:104A60004500FFF757FFA06B28B92A46314604F1ED
:104A7000240000F099F82046BDE87040FFF70ABE18
:104A800010B5020014D00F48006B38B1502080F3ED
:104A90001188BFF34F8FBFF36F8FFEE700F0E2F88E
:104AA00000211046FFF75CFA00F03AFD002807D11C
:104AB00005494FF080500860BFF34F8FBFF36F8FF1
:104AC00010BD00003000002004ED00E070B5044689
:104AD000FFF700FF1E4D04B92C68201DFFF790FE64
:104AE000A06A18B104F11800FFF78AFE686A401C3A
:104AF00068622868844207D1211D1648FFF7DEFE50
:104B00006868401C686007E0A868401EA8602046EE
:104B1000FFF731FBFFF732FDFFF7FCFE6869002865
:104B200014D02868844211D1286B38B1502080F30A
:104B30001188BFF34F8FBFF36F8FFEE706494FF029
:104B400080500860BFF34F8FBFF36F8F70BD0000C0
:104B5000300000201C0A002004ED00E002490A6A2F
:104B60000260C9684160704730000020014901209F
:104B7000C86170473000002010B50C4650B109499B
:104B800009681831FFF782FE2046BDE81040012178
:104B9000FFF7E6B9502080F31188BFF34F8FBFF3C2
:104BA0006F8FFEE73000002070B514460D4668B1E7
:104BB0000A4909681831FFF781FE0CB14FF0FF3543
:104BC00021462846BDE87040FFF7CAB9502080F35F
:104BD0001188BFF34F8FBFF36F8FFEE730000020C7
:104BE00030B587B00025039505AA04A903A804954C
:104BF000FFF728FEDDE903010095CDE90110002350
:104C000014A11648059A00F06AFB154CE06218B131
:104C100000F0E6FC012809D0401C19D1502080F397
:104C20001188BFF34F8FBFF36F8FFEE7502080F3E3
:104C30001188BFF34F8FBFF36F8F4FF0FF30A0622B
:104C400001206061E56007B0BDE8304000F050B879
:104C500007B030BD49444C4500000000F941000850
:104C6000300000200248016B491C016370470000BE
:104C700030000020164B10B5186B10B10120D86120
:104C800010BD0020D8611869124901E0B8B1401E7A
:104C900000EB800251F82220002AF7D000EB8002BE
:104CA00001EB820101F108044A6852684A60A2429D
:104CB00001D152684A60D1681960186110BD502056
:104CC00080F31188BFF34F8FBFF36F8FFEE70000B3
:104CD0003000002080050020014840687047000037
:104CE0008400002001488068704700008400002094
:104CF0001CB5264908780190FF20087008788DF8C7
:104D000000009DF800009DF8002000F0F0009042A7
:104D100007D0502080F31188BFF34F8FBFF36F8F00
:104D2000FEE79DF800001A4C00F0500020700720AC
:104D3000A06006E0401EA0609DF8000040008DF8D5
:104D400000009DF800000006A068F3D4032807D0F7
:104D5000502080F31188BFF34F8FBFF36F8FFEE7B2
:104D60004FF44070A060019808700A48016841F44F
:104D700070010160016841F070410160FFF710FEB1
:104D800000206060FBF768FA00201CBD00E400E032
:104D9000A400002020ED00E010B5502080F3118821
:104DA000BFF34F8FBFF36F8F00F0E0FA18B10449E3
:104DB0004FF080500860002080F3118810BD000083
:104DC00004ED00E038B5049D18B153B1CAB181B10A
:104DD00020E0502080F31188BFF34F8FBFF36F8F17
:104DE000FEE7502080F31188BFF34F8FBFF36F8F22
:104DF000FEE7502080F31188BFF34F8FBFF36F8F12
:104E0000FEE739B1502080F31188BFF34F8FBFF315
:104E10006F8FFEE750241C46012384F846302B4652
:104E20000094FFF717FA204638BD000070B50D4614
:104E3000040025D0FFF74EFDD4E90F20216802FBC6
:104E40000011A1600021A163216861600A46D4E9D4
:104E50000F01401E00FB0121E16021464FF0FF30B1
:104E600001F8440F487004F110008DB1FFF700FD08
:104E700004F12400FFF7FCFCFFF74CFD012070BD9E
:104E8000502080F31188BFF34F8FBFF36F8FFEE781
:104E900021690029F0D000F00BFB0028ECD0044978
:104EA0004FF080500860BFF34F8FBFF36F8FE3E781
:104EB00004ED00E02DE9FF4F83B01F468B46040050
:104EC0004FF0000603D0BBF1000F08D011E05020D6
:104ED00080F31188BFF34F8FBFF36F8FFEE7206C15
:104EE00038B1502080F31188BFF34F8FBFF36F8F1D
:104EF000FEE7022F0AD1E06B012807D0502080F393
:104F00001188BFF34F8FBFF36F8FFEE700F01AFADF
:104F1000DFF800914FF0000A4FF0805848B905982B
:104F200038B1502080F31188BFF34F8FBFF36F8FDC
:104F3000FEE7FFF7CFFCA06BE16B884205D3022FA1
:104F400003D00598C8B1DEB11EE03A465946204666
:104F5000FFF7DBF8616A19B104F1240000F0A8FA48
:104F600028B1C9F80080BFF34F8FBFF36F8FFFF7F1
:104F7000D1FC012007B0BDE8F08FFFF7CBFC21E0AA
:104F80006846FFF7EBFD0126FFF7C4FCFFF76AFE5A
:104F9000FFF7A0FC94F94400401C01D184F844A020
:104FA00094F94500401C01D184F845A0FFF7B2FCFC
:104FB00005A9684600F02CF930B12046FFF76AFBDE
:104FC00000F0AEFA0020D5E7FFF784FCA06BE16BA0
:104FD000884201D1012500E00025FFF79BFC95B137
:104FE00004F110000599FFF7C7FD2046FFF752FBBB
:104FF00000F096FA00289CD1C9F80080BFF34F8FCB
:10500000BFF36F8F95E72046FFF744FB00F088FA67
:105010008FE7000004ED00E02DE9F0471F469046C1
:105020008946040003D0B9F1000F08D011E05020E8
:1050300080F31188BFF34F8FBFF36F8FFEE7206CB3
:1050400038B1502080F31188BFF34F8FBFF36F8FBB
:10505000FEE7022F0AD1E06B012807D0502080F331
:105060001188BFF34F8FBFF36F8FFEE7FFF7AAFCE6
:105070005020EFF3118680F31188BFF34F8FBFF3F9
:105080006F8FA06BE16B884206D3022F04D0002003
:1050900086F31188BDE8F08794F94550A06B3A4635
:1050A00049462046FFF731F8681C04D06D1C84F88F
:1050B00045500120ECE7606A0028FAD004F1240092
:1050C00000F0F6F90028F4D0B8F1000FF1D001217A
:1050D000C8F80010EDE700002DE9F74783B08A46D5
:1050E00004004FF0000603D0BAF1000F08D011E021
:1050F000502080F31188BFF34F8FBFF36F8FFEE70F
:10510000206C38B1502080F31188BFF34F8FBFF36C
:105110006F8FFEE700F016F9DFF8F09000274FF0F0
:10512000805848B9059838B1502080F31188BFF3F2
:105130004F8FBFF36F8FFEE7FFF7CCFBA56BC5B1B9
:1051400051462046FEF7CEFF6D1EA563206950B183
:1051500004F1100000F0ACF928B1C9F80080BFF3E9
:105160004F8FBFF36F8FFFF7D5FB012006B0BDE86F
:10517000F087059808B11EB106E0FFF7CBFB27E0EA
:105180006846FFF7EBFC0126FFF7C4FBFFF76AFD5B
:10519000FFF7A0FB94F94400401C01D184F844704F
:1051A00094F94500401C01D184F84570FFF7B2FB2B
:1051B00005A9684600F02CF8002820460AD0FFF721
:1051C00069FA00F0ADF92046FFF7ECF80028B3D0FB
:1051D0000020CBE7FFF7E6F890B104F12400059931
:1051E000FFF7CAFC2046FFF755FA00F099F90028AE
:1051F000A2D1C9F80080BFF34F8FBFF36F8F9BE739
:105200002046FFF747FA00F08BF995E704ED00E040
:105210002DE9F0410C46050011D0C4B1FFF75AFB4F
:10522000174EF1686B682268C81A571C17D02F6890
:10523000366AB74219D08B4217D8012410E05020AB
:1052400080F31188BFF34F8FBFF36F8FFEE75020BD
:1052500080F31188BFF34F8FBFF36F8FFEE70024F9
:10526000FFF758FB2046BDE8F081824205D9101AAD
:1052700020602846FFF772FCF1E700202060DCE7A1
:10528000300000202DE9FF5F8346DDE90E87994657
:1052900016468A469000FFF733FA05001CD05C20C2
:1052A000FFF72EFA040014D00020256384F859007B
:1052B000CDE90240CDE900874B463246514658467B
:1052C000FEF7D8FF2046FEF779FE012004B0BDE8C6
:1052D000F09F2846FFF732FB4FF0FF30F6E7F0B5BE
:1052E00085B00546DDE90B040A9EA8B1E4B15C2750
:1052F00000972063022084F859000020CDE9024085
:1053000004AF2846CDE90067FEF7B4FF2046FEF75C
:1053100055FE049805B0F0BD502080F31188BFF30E
:105320004F8FBFF36F8FFEE7502080F31188BFF3DC
:105330004F8FBFF36F8FFEE7014800687047000092
:10534000300000200548416919B1006B18B10020F8
:105350007047012070470220704700003000002095
:105360000148C06870470000300000202DE9F0417E
:105370002E4F0026386B28B1B869401CB861304602
:10538000BDE8F081FD686D1CFD6013D1786B00688D
:1053900038B1502080F31188BFF34F8FBFF36F8F68
:1053A000FEE7786BB96B7963B863386A401C386282
:1053B000FFF7E4F8B86ADFF87880854209D3786BA4
:1053C0000068A0B1786BC068C4686068854211D27B
:1053D000B8623868C06A00EB800158F821000128E3
:1053E00000D90126F8690028C9D00126C7E74FF087
:1053F000FF30EDE7201DFFF703FAA06A18B104F1B2
:105400001800FFF7FDF9E06A3969884200D9386170
:1054100000EB800108EB8100211DFFF74FFAE06AE5
:105420003968C96A8842CAD30126C8E7300000201B
:105430008005002070B504004FF000002BD01A4DFD
:1054400029688C4207D0502080F31188BFF34F8F1A
:10545000BFF36F8FFEE7216DF1B1491E2165E36C4B
:10546000E26A9A4217D0002915D1201DFFF7C8F92A
:10547000E06CE062C0F13800A061E06A296988420E
:1054800000D92861094900EB800001EB8000211D53
:10549000FFF714FA012070BD502080F31188BFF38C
:1054A0004F8FBFF36F8FFEE7300000208005002094
:1054B00070B5C068C46854B104F118000646FFF71F
:1054C0009FF9144D286B50B13146134815E0502018
:1054D00080F31188BFF34F8FBFF36F8FFEE7201D5E
:1054E000FFF78EF9E06A2969884200D928610B49E3
:1054F00000EB800001EB8000211DFFF7DFF9E06A7F
:105500002968C96A884202D90120E86170BD00207B
:1055100070BD000030000020080A00208005002037
:105520002DE9F0472B4D00242746286B38B1FFF7B3
:10553000D1F9286B401E2863286B40B145E050200C
:1055400080F31188BFF34F8FBFF36F8FFEE7A8681A
:1055500021490126C8B3A1F591698846D8F8001001
:10556000E1B1D8F80C00C46804F11800FFF748F95D
:10557000201DFFF745F9E06A2969884200D92861B2
:1055800000EB800109EB8100211DFFF797F9E06A2C
:105590002968C96A8842E1D3EE61DFE70CB1FEF702
:1055A000EDFFAC693CB1FFF7E1FE00B1EE61641EB6
:1055B000F9D10020A861E86938B108490127380706
:1055C0000860BFF34F8FBFF36F8FFFF7A3F9384623
:1055D000BDE8F08730000020080A002004ED00E05C
:1055E00010B586B0FEF752FD114C2068B8B100200E
:1055F0000390049005AA04A903A8FFF72DF9DDE99B
:10560000032102208DE8070000230AA10B48059A18
:10561000FFF765FE606010B106B0012010BD50209C
:1056200080F31188BFF34F8FBFF36F8FFEE7000049
:105630006C000020546D7220537663006D460008A4
:105640002DE9FF411F4603000A9E4FF0000015D0D0
:10565000134D2C68002C0ED08DE80E00062917DAA9
:10566000FFF770FE02284FF000030FD000226946BA
:105670002868FFF71FFC04B0BDE8F081502080F3DC
:105680001188BFF34F8FBFF36F8FFEE73246EEE70F
:1056900000233A4669462046FFF7BEFCEBE70000D0
:1056A0006C00002010B500290AD00878002807D027
:1056B00005487844FAF7F4FE002801D0002010BD18
:1056C0000248784410BD0000EA0A0000E20A000027
:1056D00010B500290AD00878002807D0054878447A
:1056E000FAF7DEFE002801D0002010BD0248784401
:1056F00010BD0000DA0A0000D20A0000FBF791BBDF
:10570000FBF7C6BC00000000000000000000000025
:1057100000000000000000F800000000000000335E
:105720003000000000160E00160E00000000000001
:105730000000000040C07840C0784000043F0404EE
:105740003F040400007088FC08300000001820FFAF
:10575000211E0000F008F000E018000000211C03EA
:105760001E211E0000F00888700000001E21232466
:1057700019272110000000160E0000000000000094
:1057800000000000000000E0180402000000000714
:105790001820400000020418E0000000004020181B
:1057A00007000000404080F0804040000202010FEE
:1057B00001020200000000F0000000000101011FD2
:1057C00001010100000000000000000000B07000B6
:1057D00000000000000000000000000000010101C6
:1057E0000101010100000000000000000030300055
:1057F000000000000000000080601804006018062F
:105800000100000000E010080810E000000F102068
:1058100020100F00001010F8000000000020203FB2
:10582000202000000070080808887000003028243C
:1058300022213000003008888848300000182020DD
:1058400020110E000000C02010F800000007042402
:10585000243F240000F80888880808000019212047
:1058600020110E0000E0108888180000000F1120A1
:1058700020110E0000380808C83808000000003F5A
:10588000000000000070880808887000001C2221B9
:1058900021221C0000E010080810E0000000312266
:1058A00022110F00000000C0C00000000000003006
:1058B00030000000000000C0C0000000000080B008
:1058C0007000000000008040201008000001020469
:1058D00008102000404040404040400004040404C0
:1058E000040404000008102040800000002010087C
:1058F00004020100007048080808F00000000030B1
:1059000036010000C030C828E810E000071827243E
:1059100023140B000000C038E0000000203C2302EC
:105920000227382008F8888888700000203F20204F
:1059300020110E00C0300808080838000718202081
:105940002010080008F808080810E000203F202078
:1059500020100F0008F88888E8081000203F202059
:105960002320180008F88888E8081000203F20004D
:1059700003000000C0300808083800000718202085
:10598000221E020008F808000008F808203F210144
:1059900001213F20000808F8080800000020203FEF
:1059A0002020000000000808F8080800C08080805F
:1059B0007F00000008F888C028180800203F200158
:1059C0002638200008F8080000000000203F2020B2
:1059D0002020300008F8F800F8F80800203F003FC9
:1059E000003F200008F830C00008F808203F2000E1
:1059F00007183F00E01008080810E0000F102020F2
:105A000020100F0008F808080808F000203F2101C6
:105A100001010000E01008080810E0000F1824241D
:105A200038504F0008F8888888887000203F200090
:105A3000030C302000708808080838000038202146
:105A400021221C00180808F8080818000000203F50
:105A50002000000008F808000008F808001F2020B7
:105A600020201F000878880000C838080000073888
:105A70000E010000F80800F80008F800033C0700D9
:105A8000073C0300081868808068180820302C0341
:105A9000032C30200838C800C83808000000203F18
:105AA0002000000010080808C83808002038262107
:105AB00020201800000000FE020202000000007F0B
:105AC00040404000000C30C0000000000000000119
:105AD0000638C00000020202FE0000000040404004
